:1084F00043616C63756C61746F72205465737400B2
:10850000200030000002010002000001020234AA33
:0385100000000365
:108481004201C800004A01CD3100320033003400FE
:0684910035004101CB01A2
:0A4C6A007B967A007C007F0A7E0032
:104C740090001DEAF0A3EBF0900019EEF0A3EFF022
:104C8400A3ECF0A3EDF090001FE0FAA3E0FB90008A
:104C94003E74A5F0A37435F0127AD3900019E0FEA7
:104CA400A3E0FFA3E0FCA3E0FDA3E0FAA3E0FB90F4
:104CB400003E74A5F0A37435F0127E7E90001AE0D5
:104CC4002401FF900019E03400FE90001CE0240150
:104CD400FD90001BE03400FC900020E024FEFB90DB
:104CE400001FE034FFFA90003E7484F0A37431F0A6
:104CF400127AD390001AE02401FF900019E03400E6
:104D0400FE90001CE02401FD90001BE03400FC90A8
:104D1400001EE024FEFB90001DE034FFFA90003EEC
:104D24007484F0A37431F0127E7E90001DE0FEA323
:104D3400E0FF90001AE02FFF900019E03ECF24FF1F
:104D4400CF34FFFE90001BE0FCA3E0FD90001FE0C9
:104D5400FAA3E0FB74FF90003EF0A3F0127AD39024
:104D64000019E0FEA3E0FF90001FE0FCA3E0FD902B
:104D7400001CE02DFD90001BE03CCD24FFCD34FF52
:104D8400FC90001DE0FAA3E0FB74FF90003EF0A34A
:104D9400F0127E7E90001DE0FEA3E0FF90001AE07A
:104DA4002FFF900019E03ECF24FECF34FFFE900089
:104DB4001CE02401FD90001BE03400FC900020E086
:104DC40024FEFB90001FE034FFFA90003E74DEF0F6
:104DD400A374FCF0127AD390001AE02401FF90002F
:104DE40019E03400FE90001FE0FCA3E0FD90001CDD
:104DF400E02DFD90001BE03CCD24FECD34FFFC9063
:104E0400001EE024FEFB90001DE034FFFA90003EFB
:104E140074DEF0A374FCF0127E7E90001AE024028B
:104E2400FF900019E03400FEC006C00790001CE0AB
:104E34002402FD90001BE03400FC90001EE024FDE1
:104E4400FB90001DE034FFFA90001FE0FEA3E02475
:104E5400FDFFEE34FF90003EF0A3EFF0900021E060
:104E6400FFA3E0900040CFF0A3EFF0D007D00602FC
:024E74007C833D
:0A78A9007B967A007C007F0A7E00C7
:1078B300900019EEF0A3EFF0A3ECF0A3EDF0A3EA30
:0478C300F0A3EBF053
:1078C7009002DFE0FFA3E09001C8CFF0A3EFF090B4
:1078D7000025E0FFA3E09002DFCFF0A3EFF09000D8
:1078E70021E0FEA3E0FF90001AE02FFF900019E0CF
:1078F7003EFE900023E0FCA3E0FD90001CE02DFD80
:1079070090001BE03CFC90001FE0FBA3E0900033DD
:10791700CBF0A3EBF0900027E0FBA3E0900035CB82
:10792700F0A3EBF0900029E0900037F090002AE0F8
:10793700F9A3E0FAA3E0900038C9F0A3EAF0A3E9BD
:10794700F0E4A3F090001DE0FAA3E0FB124A429096
:0E79570001C8E0FFA3E09002DFCFF0A3EFF045
:0179650022FF
:106A2C00900019EEF0A3EFF0A3ECF0A3EDF0A3EAC5
:106A3C00F0A3EBF0C007A3E0FFA3E090002ECFF093
:106A4C00A3EFF0900021E0900030F0A37401F0A3CC
:106A5C007484F0A37452F0A3F0A374CDF0D0071299
:106A6C001C1990001BE0FCA3E0FDA3E0FAA3E0FBE3
:106A7C00A3E0FFA3E090002ECFF0A3EFF090002155
:106A8C00E0900030F0E4A3F0A3F0A3F0A3F0A3F0A7
:106A9C00900019E0FEA3E0FF121C19900021E0F910
:106AAC0075F002A4FFC390001EE09FFB90001DE058
:106ABC0095F0FAE9FF90001AE02FFF900019E034EE
:106ACC0000FE90001CE02401FD90001BE03400FC53
:106ADC0090003E74D6F0A374BBF0127E7E90001A28
:106AEC00E02401FF900019E03400FE90001CE0242B
:106AFC0001FD90001BE03400FC90001FE0FBA3E0C4
:106B0C0090002ECBF0A3EBF0900022E0FBA3E090E2
:106B1C000030CBF0A3EBF0900024E0900032F0902A
:106B2C000025E0F9A3E0FAA3E0900033C9F0A3EA52
:0F6B3C00F0A3E9F090001DE0FAA3E0FB0262EB8A
:10690900900019EEF0A3EFF0A3ECF0A3EDF0A3EAE9
:10691900F0A3EBF0C007A3E0FFA3E090002ECFF0B7
:10692900A3EFF0900021E0900030F0A37401F0741F
:10693900FFA3F0A3F0A3F0A3F0D007121C19900055
:106949001BE0FCA3E0FDA3E0FAA3E0FBA3E0FFA3A7
:10695900E090002ECFF0A3EFF0900021E0900030FE
:10696900F0E4A3F0A37407F0A374E0F0A37407F0B4
:10697900A374E0F0900019E0FEA3E0FF121C199047
:106989000021E0F975F002A4FFC390001EE09FFB0F
:1069990090001DE095F0FAE9FF90001AE02FFF90B2
:1069A9000019E03400FE90001CE02401FD90001B5A
:1069B900E03400FC90003E74D6F0A374BBF0127E64
:1069C9007E90001AE02401FF900019E03400FE9047
:1069D900001CE02401FD90001BE03400FC90001F26
:1069E900E0FBA3E090002ECBF0A3EBF0900022E0B7
:1069F900FBA3E0900030CBF0A3EBF0900024E090F3
:106A09000032F0900025E0F9A3E0FAA3E09000330A
:106A1900C9F0A3EAF0A3E9F090001DE0FAA3E0FBB6
:036A29000262EB1B
:102F3F00E4900000F0A3F0A3F0A3F0A3F0A3F0A39C
:102F4F00F0A3F0A3F0A3F0A3F0A3F0A3F0A3F07805
:102F5F000F7C007D017BFF7A857904FE7F051223AC
:102F6F009C78147C007D017BFF7A8579097E007F38
:102F7F000512239C9002DD74F8F0A3E4F09002D8C0
:102F8F00E0FFA3E090001FCFF0A3EFF0A37410F0C9
:102F9F00A374FFF0A37484F0A374F0F09002D6E052
:102FAF00FAA3E0FBE4FDFC7F0AFE12722B90001FD8
:102FBF00E4F0A37414F074FFA3F0A3F07D14124C8B
:102FCF006A90001FE4F0A37414F0A3E4F0A3740557
:102FDF00F0A3E4F0A37402F074FFA3F0A3F0A3E452
:102FEF00F0A3741FF0A37410F0A374FFF0A3748503
:102FFF00F0A37400F07D141278A990001FE4F0A3E1
:10300F007414F074FFA3F0A3F07D29124C6A9000A2
:10301F001FE4F0A37414F0A3E4F0A37405F0A3E489
:10302F00F0A37402F074FFA3F0A3F0A3E4F0A37471
:10303F001FF0A37410F0A374FFF0A37485F0A374B2
:10304F0002F07D291278A9E4900000F0900000E0D2
:10305F00FBC39404748094805074E0FD2414F582B3
:10306F00E43400F583E075F028A4240AFFE435F07A
:10307F00FEC006C007740F2DF582E43400F583E01F
:10308F0075F028A42442FDE435F0FCEB75F002A4A2
:10309F0024CDF9740135F0FA9000257401F0A3EAFC
:1030AF00F0A3E9F090001FE4F0A3741EF0A37404E2
:1030BF00F0E4A3F0A3F0A37418F0D007D0067B1EA2
:1030CF007A00126A2C900000E004F002305B126567
:1030DF00739002AFE070030231D9E4900000F090DA
:1030EF000000E0FFC39404748094804003023252C6
:1030FF0074142FF582E43400F583E075F028A424CE
:10310F000AFFE435F0FE3395E0FDFC9002A7E0F8EE
:10311F00A3E0F9A3E0FAA3E0FBC312269D5003023C
:10312F0031D0900000E02414F582E43400F583E000
:10313F0075F028A42428FFE435F0FE3395E0FDFC5C
:10314F009002A7E0F8A3A3A3E0D312269D5072909C
:10315F000000E0240FF582E43400F583E075F028D9
:10316F00A42442FFE435F0FE3395E0FDFC9002AB62
:10317F00E0F8A3E0F9A3E0FAA3E0FBC312269D4019
:10318F0040900000E0240FF582E43400F583E075F1
:10319F00F028A42460FFE435F0FE3395E0FDFC90A9
:1031AF0002ABE0F8A3A3A3E0D312269D5013900027
:1031BF0000E090000EF0049001CAF090000274013C
:1031CF00F0900000E004F00230EE900002E0607337
:1031DF00E4F090000EE0FD2414F582E43400F58352
:1031EF00E075F028A4240AFFE435F0FEC006C007FE
:1031FF00740F2DF582E43400F583E075F028A424D4
:10320F0042FDE435F0FC90000EE075F002A424CDF1
:10321F00F9740135F0FA9000257401F0A3EAF0A3D8
:10322F00E9F090001FE4F0A3741EF0A37404F0E41F
:10323F00A3F0A3F0A37418F0D007D0067B1E7A007A
:10324F00126A2C900002E0607190000EE0FD2414D1
:10325F00F582E43400F583E075F028A4240AFFE436
:10326F0035F0FEC006C007740F2DF582E43400F56B
:10327F0083E075F028A42442FDE435F0FC90000EA5
:10328F00E075F002A424CDF9740135F0FA90002511
:10329F007401F0A3EAF0A3E9F090001FE4F0A37427
:1032AF001EF0A37404F0E4A3F0A3F0A37418F0D0FD
:1032BF0007D0067B1E7A00126909900000E004F027
:1032CF00E075F01484E5F07002B2A67F0A7E00125A
:0532DF0085320230DD24
:0B861100C292D293C297D294D2A12251
:0A83DC00EBF0A3EAF0A3E9F0C2936E
:1083E600E4FEEEC39408748094805015EF339291A6
:1083F600EF25E0FFD297A296E4334FFFC2970E8097
:01840600E194
:018407002252
:09856D007D017F211285767F2239
:10857600C2931283E6AC07AF051283E6D293AF042B
:0185860022D2
:0C860400C2931283E6E4FF1283E6D293D7
:018610002247
:038318009003418E
:10831B001283DCAD07E4FC900344E0FFECC39F50F9
:10832B001CE4FF1283E6900341E0FBA3E0FAA3E019
:10833B00F98C82758300EF12241A0C80DAD293AF7A
:01834B00052C
:01834C00220E
:0E81AE007BFF7A85790E9000077405F07F2A1A
:0381BC009000042C
:1081BF001283DCAD07E4FC900007E0FFECC39F5097
:1081CF001A900004E0FBA3E0FAA3E0F98C82758318
:0F81DF00001223DBFF1283E60C80DCD293AF0586
:0181EE00226E
:1082E2007FC87E001285322094FD7FFF1283E68FC5
:1082F200203005057F031284CC3004083008057F46
:10830200E11283E6AD207F27128576D294300503F1
:068312007F00227FFF2224
:10838000C2921281AE12856D7D287F251285767D81
:10839000047F311285767D077F261285767D0F7FDB
:0E83A000201285767F967E00128532D29222C0
:107FD700900000EBF0A3EAF0A3E9F0C2927BFF7AEE
:107FE70085790E9000077405F07F301281BC1281ED
:107FF700AE900000E0FBA3E0FAA3E0F9900007745D
:1080070004F07FA01281BC12856D7D0A7F24128542
:10801700767D287F251285767D077F261285767DDA
:108027000E7F201285767F967E00128532D29222AD
:10855000127FD7C2081282E2E4FD7FE11285767FA6
:0D856000FA7E001285327FFA7E000285321D
:1084CC00900000EFF0900000E0FF14F0EF6014D289
:1084DC00A17FF47E01128532C2A17FF47E01128548
:0484EC003280E222D6
:1085C6009001CAE09001DBF07B017A0179DB02853C
:0185D6005054
:1085D7001285871245C7128611122F3F1285C68052
:0185E700FE95
:0B861C00EF1FAC0670011E4C70F62230
:0E85E800EF1FAC0670011E4C60030080F322F2
:10853200D3EF9400EE940040147D6E7C00ED1D702C
:0D854200011CED4C70F7EF1F70E61E80E38A
:01854F002209
:058497004200B40000EA
:10858700439850438920758780758DFA858D8BD2E6
:06859700AFD28ED2992242
:08863200EF24FF92ACC2982274
:0E85F600C2ACC2998F993099FDC299D2AC22C5
:10834D00900349EBF0A3EAF0A3E9F0900349E0FBB9
:10835D00A3E0FAA3E0F91223C2FF60161285F67F9F
:10836D00057E0012861C90034AE475F0011224D993
:03837D0080D92282
:03002300027CF963
:0F7CF900C0E0C083C082C0D075D000C004C007F7
:107D0800309865C298AF999000B4E0FCEC20E75831
:107D180030E60FEF640A9000B460028047E04480C8
:107D2800800BEF640D700C9000B4E04440F0A3E0C9
:107D3800F080359000B4E0543FFCA3E02482F58243
:107D480074003CF583EFF09000B5E004F070069005
:107D580000B4E004F0D39000B5E094319000B4E0B2
:087D680094004004E4F0A3F0D4
:0D7D7000D007D004D0D0D082D083D0E03234
:10002600204C43442049443A25780D0A000000003C
:10003600000000000000000000000000003F40003B
:1000460000000000000000300040003000400000CA
:100056000009000BC03D000BC03D00090018C0247C
:10006600407FE0224031800000180024C01B000DB4
:10007600803240018003801C4027401C80074000DE
:1000860040100060000000000000000000000000BA
:100096000000001F80204040200000402020401F1C
:1000A6008000000000090006001F8006000900000D
:1000B60000040004003F800400040000000010005B
:1000C60060000000000000000004000400040004BA
:1000D60000040000000000004000000000000000D6
:1000E60000002001C006003800400000001F8020EC
:1000F60040204020401F800000000010403FC0000C
:10010600400000000018C021402240244018400052
:100116000010802040244024401B80000002000D77
:100126000011003FC0014000003C802440244024D0
:1001360040238000001F8024402440344003800078
:10014600003000200027C03800200000001B80245B
:1001560040244024401B8000001C0022C022402274
:10016600401F800000000000000840000000000062
:100176000000000000046000000000000000000411
:10018600000A00110020804040090009000900090A
:10019600000900000000004040208011000A000411
:1001A600001800200023402400180000001F8020B3
:1001B60040274029401F400000004007C039000F7B
:1001C6000001C0004020403FC0244024401B800066
:1001D600001F802040204020403080000020403F0B
:1001E600C0204020401F80000020403FC024402EF9
:1001F6004030C0000020403FC024402E00300000A8
:10020600000F001080204022403380020020403F33
:10021600C0040004003FC02040204020403FC020D2
:1002260040204000000060202020203FC020002009
:100236000020403FC024400B0030C0204020403FFB
:10024600C020400040004000C03FC03C0003C03C0E
:10025600003FC0000020403FC00C4023003FC020AC
:10026600001F802040204020401F80000020403F8B
:10027600C024402400180000001F80214021402097
:10028600E01FA0000020403FC02440260019C00007
:100296004018C02440244022403180000030002015
:1002A600403FC020403000000020003F800040005A
:1002B600403F80200020003E0001C007003800209B
:1002C60000380007C03C0007C03800000020403955
:1002D600C0060039C0204000002000384007C03862
:1002E6004020000000304021C02640384020C00099
:1002F60000000000007FE040204020000000007069
:10030600000C000380004000000000402040207FD9
:10031600E000000000000020004000200000000077
:100326000000100010001000100010001000000067
:1003360000400000000000000000000280054005AB
:100346004003C0004020003FC0044004400380003A
:100356000000000380044004400640000000000343
:1003660080044024403FC000400000038005400553
:100376004003400000000004401FC02440244020E9
:1003860000000002E0055005500650042020403FC2
:10039600C00440040003C000400000044027C00021
:1003A600400000000000100010041027E0000000CC
:1003B6000020403FC00140070004C0044020402008
:1003C600403FC000400040000007C0040007C004D2
:1003D6000003C00000044007C00440040003C0003E
:1003E600400000038004400440038000000410071E
:1003F600F004500440038000000000038004400421
:100406005007F00010044007C0024004000400003A
:1004160000000006400540054004C000000000043E
:10042600001F8004400040000004000780004004D4
:100436004007C000400400070004C0018006000415
:1004460000060001C0070001C006000000044006C7
:10045600C0010006C0044000000410071004E001BB
:1004660080060004000000044005C0064004400069
:10047600000000000004007BE040200000000000B7
:10048600000000FFF000000000000040207BE004B8
:1004960000000000004000800040002000200040D6
:1004A6000000000000000000000000000000000046
:1004B600000000000000001FCC000C00000000003F
:1004C60000000008003000600008003000600000F6
:1004D60000022003FC1E20022003FC1E2002200036
:1004E6000000000E1811043FFF10840C7800000075
:1004F600000F0010840F3800C007781884007800B9
:100506000000780F8410C411240E9800E4008400C3
:1005160008080068007000000000000000000000ED
:100526000000000000000007E01818200440020048
:1005360000000040022004181807E0000000000038
:10054600000240024001800FF0018002400240009C
:10055600000080008000800FF8008000800080008E
:10056600000001000D000E00000000000000000069
:100576000000000080008000800080008000800075
:10058600800000000C000C000000000000000000CD
:100596000000000006001800600180060018002018
:1005A60000000007F0080810041004080807F0000F
:1005B600000000080408041FFC00040004000000FA
:1005C6000000000E0C10141024104411840E0C00B0
:1005D6000000000C1810041104110412880C70009D
:1005E60000000000E00320042408241FFC0024006F
:1005F6000000001F98108411041104108810700068
:1006060000000007F0088811041104188800700023
:100616000000001C00100010FC13001C001000005D
:100626000000000E3811441084108411440E380066
:100636000000000700088C10441044088807F000EA
:1006460000000000000000030C030C000000000086
:10065600000000000000010106000000000000008C
:100666000000000080014002200410080810040069
:100676000002200220022002200220022002200086
:100686000000001004080804100220014000800049
:100696000000000E001200100C106C10800F0000FD
:1006A6000003E00C1813E4142417C4082807D0002C
:1006B600000004003C03C41C40074000E4001C008A
:1006C6000410041FFC1104110411040E88007000AC
:1006D6000003E00C1810041004100410081C10008D
:1006E6000010041FFC100410041004080807F00092
:1006F6000010041FFC1104110417C410040818008C
:100706000010041FFC1104110017C010000800009F
:100716000003E00C181004100410441C780040007C
:100726000010041FFC10840080008010841FFC1041
:10073600040000100410041FFC1004100400000044
:100746000000030001100110011FFE100010000040
:100756000010041FFC110403801464181C1004000C
:100766000010041FFC1004000400040004000C0028
:100776000010041FFC1F0000FC1F001FFC100400DB
:100786000010041FFC0C04030000E010181FFC10EE
:100796000007F00808100410041004080807F00009
:1007A6000010041FFC10841080108010800F0000C1
:1007B6000007F0081810241024101C080A07F2007D
:1007C6000010041FFC1104110011C011300E0C00A2
:1007D6000400000E1C11041084108410441C380000
:1007E600001800100010041FFC1004100018000070
:1007F6000010001FF810040004000410041FF81075
:100806000010001E0011E0001C007013801C001078
:10081600001FC0103C00E01F0000E0103C1FC0009D
:10082600001004180C163401C001C01634180C1040
:100836000410001C00130400FC13041C001000002C
:10084600000804101C1064108413041C0410180003
:10085600000000000000007FFE400240024002004F
:1008660000000030000C0003800060001C00030044
:100876000000004002400240027FFE00000000002F
:100886000000000000200040004000400020000062
:10089600000001000100010001000100010001004B
:1008A60001000040004000200000000000000000A1
:1008B6000000000098012401440144014400FC00AA
:1008C6000410001FFC008801040104008800700069
:1008D6000000000070008801040104010400880083
:1008E600000000007000880104010411081FFC00CC
:1008F60004000000F8014401440144014400C8001A
:10090600000000010401040FFC1104110411001879
:1009160000000000D601290129012901C9010600AC
:100926000010041FFC008401000100010400FC000B
:100936000400000104190419FC000400040000006E
:10094600000000000300010101190119FE0000006A
:100956000010041FFC0024004001B4010C01040037
:10096600000000100410041FFC0004000400000036
:1009760000010401FC0104010001FC010401000066
:10098600FC010401FC008401000100010400FC00DC
:1009960004000000F8010401040104010400F80049
:1009A60000010101FF0085010401040088007000B8
:1009B6000000000070008801040104010501FF0029
:1009C600010104010401FC0084010401000180000E
:1009D60000000000CC012401240124012401980018
:1009E6000000000100010007F801040104000000F6
:1009F60000010001F8000400040004010801FC00E5
:100A060004010001800170000C00100160018001EA
:100A16000001F0010C003001C00030010C01F001B2
:100A26000000000104018C00740170018C010400B7
:100A360000010101810171000E00180160018001B1
:100A46000000000184010C013401440184010C0002
:100A560000000000000000000001003EFC400240D3
:100A6600020000000000000000FFFF000000000080
:100A7600000000400240023EFC01000000000000B1
:100A86000000006000800080004000400020002040
:100A96000000000000000000000000000000000050
:100AA6000000000000000000000000000000000040
:100AB6000000000000000000000000000000000030
:100AC600000000000F80380FFE380F80380000004D
:100AD600000000000000000000000000000000010F
:100AE60000000600000C000038000031000006007F
:100AF600000C00003800003000000000000000007C
:100B06000061800067F807F980006180006180005D
:100B160061800061800067F807F98000618000004D
:100B26000000000000000001C0E003E0F00630080D
:100B36000418081FFFFE040E080787F00381E00073
:100B4600000000000001F000060C00040408060C7A
:100B56007001F9C0000E00003BE000EC1807080821
:100B6600040C180003E00000000001E00007F00399
:100B7600F818041C0804170807E1D003C0E0002396
:100B8600B0003C0800200800001000000000000033
:100B96000100003100003200001C000000000000CF
:100BA600000000000000000000000000000000003F
:100BB600000000000000000000000000000000002F
:100BC600007F0001FFC00780F00C00181000042011
:100BD60000020000000000002000021000040C00CB
:100BE600180780F001FFC0007F0000000000000031
:100BF60000000000000000000000000000420000AD
:100C06006600006600003C0000180003FFC00018E4
:100C160000003C0000660000660000420000000084
:100C26000008000008000008000008000008000195
:100C3600FFC00008000008000008000008000008C7
:100C46000000000000000100003100003200001C1E
:100C5600000000000000000000000000000000008E
:100C66000000000000000000000800000800000866
:100C76000000080000080000080000080000080046
:100C8600000800000800000000000000000000004E
:100C960000380000380000380000000000000000A6
:100CA600000000000000000000000000000000003E
:100CB60000000600001C000070000180000E00000D
:100CC600380000C0000700001C00003000000000D3
:100CD60000000000007F8001FFE00380700600181E
:100CE60004000804000806001803807001FFE000F5
:100CF6007F800000000000000000000100080100E5
:100D06000801000803FFF807FFF8000008000008C4
:100D160000000800000000000000000001C03802CA
:100D2600C058040098040118040218040418061C8C
:100D36001803F81801E0F8000000000000000000A9
:100D460001C0E003C0F0040008040808040808060F
:100D5600180803F41801E7F00001E00000000000A5
:100D660000000000000300000D00001100006100FB
:100D760000810803010807FFF80FFFF800010800CB
:100D860001080000000000000000E007FCD0060893
:100D960008061008061008061008061838060FF090
:100DA6000607C0000000000000000000003F8001B0
:100DB600FFE0038430020818041008041008041029
:100DC60008071810030FF00007C00000000000001D
:100DD60000000003C0000700000600000600F80639
:100DE60007F806180006E0000700000600000000ED
:100DF6000000000001E1E003F7F0063410041808D3
:100E0600041808040C08040C0806161803F3F0016D
:100E1600C1E000000000000000F80003FC300306FB
:100E2600380402080402080402080404100308F047
:100E360001FFC0007F00000000000000000000006D
:100E460000000000000000000070380070380070DC
:100E56003800000000000000000000000000000054
:100E660000000000000000000000000000301A0032
:100E7600301C000000000000000000000000000020
:100E8600000000000000000008000014000022001E
:100E9600004100008080010040020020040010088C
:100EA60000080000000000000021000021000021D1
:100EB6000000210000210000210000210000210087
:100EC60000210000210000000000000000000008D2
:100ED600000804001002002001004000808000414C
:100EE60000002200001400000800000000000000BE
:100EF60003C00004C000040000080038080F3808CA
:100F060008380810000C300007E00003C00000009D
:100F160000000000003F8000FFE0038070020F1019
:100F260006708804C088048308047F8802C0900382
:100F3600012000FE400000080000180001F8003EF5
:100F46000801C20007020007E20000FE00001FC8F9
:100F56000001F800003800000804000807FFF80741
:100F6600FFF8040808040808040808040808061816
:100F76000803F41801E7F00001E00000000000009B
:100F8600003F8001FFE0038070020018040008049F
:100F960000080400080400100600200780C00000B6
:100FA6000004000807FFF807FFF80400080400081B
:100FB60004000804001802001003807001FFE0001E
:100FC6007F8000000004000807FFF807FFF8040808
:100FD60008040808040808040808043E0804000871
:100FE60006001801006000000004000807FFF8076B
:100FF600FFF8040808040800040800040800043E7A
:10100600000600000600000180000000000000004D
:10101600003F8001FFE0038070060018040008040A
:1010260002080402080203F00783F000020000022F
:101036000004000807FFF807FFF804080800080086
:1010460000080000080000080004080807FFF80769
:10105600FFF8040008000000000000040008040077
:101066000804000807FFF807FFF804000804000852
:101076000400080000000000000000000000060058
:10108600000700000104000104000104000307FF3B
:10109600FE07FFFC04000004000004000004000832
:1010A60007FFF807FFF8040C08001800003E0004CC
:1010B600C7800503C80600F80400380400180000BD
:1010C6000804000807FFF807FFF8040008000008F6
:1010D60000000800000800000800000800001800D2
:1010E600006000000004000807FFF807800807FCFE
:1010F60000007FC00003F80007C0007800078008E2
:1011060007FFF807FFF804000804000807FFF807C0
:10111600000803C00000E000003800001E000007C1
:10112600000001C00400F007FFF804000000000002
:10113600007F8001FFE003807006001804000804A9
:10114600000806001803003001FFE0007F80000061
:101156000004000807FFF807FFF804040804040069
:10116600040400040400040400060C0003F8000153
:10117600F000000000000000007F8001FFE0038017
:10118600700600880400880400C806003C03003E80
:1011960001FFE6007F8400000004000807FFF8074F
:1011A600FFF8040808040800040C00040F00040BF0
:1011B600C00610F003F03801E00800000800000047
:1011C60001E0F803F030063010041808041808048B
:1011D6000C08040C080206180207F00781E000005C
:1011E600000180000600000400000400000400085E
:1011F60007FFF807FFF804000804000004000006D3
:10120600000001800004000007FFE007FFF0040073
:101216001800000800000800000800000800000888
:1012260004001007FFE004000004000006000007A9
:10123600E00007FE00041FE00001F800003800018E
:10124600E0043E0007C000060000040000040000A1
:1012560007E00007FFC0041FF80007C007F80007F3
:10126600FF80043FF80007C004F8000700000400F0
:101276000000000004000806001807C07805F1C841
:10128600003E00001F800463E80780F8060018048B
:10129600000800000004000006000007800007E0C8
:1012A60008047C08001FF80007F800180804E00886
:1012B6000700000600000400000000000100080608
:1012C60000380400F80403E8040F08047C0805F05D
:1012D6000807C008070018040060000000000000AE
:1012E6000000000000000000000000003FFFFE209C
:1012F600000220000220000220000220000200005E
:101306000000000000000008000007000000C00008
:101316000038000006000001C000003000000E008A
:101326000001000000000000000000200002200074
:10133600022000022000022000023FFFFE00000003
:101346000000000000000000000000000000000097
:1013560000000800001000003000002000003000EF
:10136600001000000800000000000000000000015E
:101376000000010000010000010000010000010062
:101386000001000001000001000001000001000052
:101396000100000000000000000020000020000006
:1013A6001000001000000000000000000000000017
:1013B60000000000000000000000F00019F8001B0B
:1013C60018002208002608002408002410003FF810
:1013D600001FF800000800001800000004000007C5
:1013E600FFF80FFFF0001818001008002008002072
:1013F60008003018001FF0000FC0000000000000B9
:101406000007C0001FF00018300020080020080068
:101416002008003C08001C100000600000000000CE
:10142600000000000007C0001FF000381800200868
:1014360000200800200804101007FFF80FFFF00036
:1014460000100000000000000000000007C0001FA0
:10145600F00012300022180022080022080032088C
:10146600001E10000E2000000000000000200000FA
:10147600200800200801FFF803FFF80620080420D2
:1014860008042008072000030000000000000000F8
:1014960000000E000E6E001FF30031B10020B100F7
:1014A60020B1003191001F13002E1E00200E0030C7
:1014B6000000000004000807FFF80FFFF8001008FE
:1014C600002000002000002008003FF8001FF80060
:1014D60000080000000000000000000020080020B6
:1014E60008002008063FF8063FF80000080000083C
:1014F60000000800000000000000000000000000DE
:101506000003000003002001002001002003063F25
:10151600FE063FFC00000000000000000000000086
:1015260004000807FFF80FFFF80001880003000019
:101536002FC00038F80020380020080000080000FE
:101546000000000000000004000804000804000871
:1015560007FFF80FFFF80000080000080000080069
:101566000000000000002008003FF8003FF80010CF
:1015760008002000003FF8003FF800100800200097
:10158600003FF8003FF800000800000000200800B7
:101596003FF8003FF800100800100000200000206F
:1015A60008003FF8001FF8000008000000000000D7
:1015B6000007C0000FF000183000300800200800B7
:1015C6002008003008001830000FF00007C00000A7
:1015D60000000000002001003FFF003FFF00101147
:1015E600002009002008002008003038001FF00005
:1015F6000FC00000000000000007C0001FF0003808
:1016060018002008002008002009001011001FFF04
:10161600003FFF0000010000000020080020080035
:101626002008003FF8003FF80008080010080020D6
:10163600080020000030000030000000000000001C
:10164600000000000C78001E180033080023080074
:1016560021080021880021980030F0003860000041
:101666000000000000200000200000200000FFF025
:1016760003FFF800200800200800200800003000C2
:101686000000000000000000002000003FF0007F86
:10169600F8000018000008000008002010003FF8BD
:1016A600007FF00000100000000000000020000095
:1016B6003000003C00003F800023F000007800006E
:1016C60070002380003C0000300000200000200055
:1016D600003C00003FE00023F80000E00027000087
:1016E6003E00003FE00021F80001E0003E0000203F
:1016F60000000000002008002008003838003E687E
:101706000027800003C8002CF80038380020180095
:101716002008000000000000002000003003003C0C
:1017260001003F830023EC000070002380003C0092
:101736000020000020000000000000000000000063
:1017460038080020380020F80023E8002F88003EE3
:101756000800380800201800007000000000000093
:10176600000000000000000000000000000800006B
:1017760014001FF7FC3000062000020000000000E5
:101786000000000000000000000000000000000053
:10179600000000FFFFFF0000000000000000000046
:1017A60000000000000000000000002000023000E1
:1017B600061FF7FC001400000800000000000000EF
:1017C600000000000000000000000000180000609B
:1017D600000040000040000020000010000008004B
:1017E600000400000400000C0000100000C6D50034
:1017F60000000000E0380000783C00003C78000063
:101806003C70C0001CE1E01FFFFFF0001CE3000E6F
:101816001CE7C0079CE78003DCEF0003DCEE000159
:10182600DCFC60009CF9F07FFFFFF800000000017F
:10183600C00E0001FFFF0001C00E0001C00E000136
:10184600C00E0001FFFE0001C00E0001C00E000127
:10185600C00E0001FFFE0001C00E0001C00E000018
:10186600000000D6D000000000000700000007803E
:101876000000070000000700000007000000070145
:10188600801FFFFFE01FFFFFE01E0701C01E0701CC
:10189600C01E0701C01E0701C01E0701C01E0701AA
:1018A600C01FFFFFC01FFFFFC01E0701C01C0701AE
:1018B6008000070000000700000007000000070086
:1018C60000000700000007000000070000000700F6
:1018D600000007000000000000BFC6000000000076
:1018E600000780003C07C001FC07803FE007803905
:1018F600C1C78001C0E78001C0F78001C0778001C1
:10190600DE77807FFE078001C0078003C3C78003A0
:10191600E1E78003F8F78007FCE7F00FDE67F80FD2
:10192600DC07F81FC0FF801DDFE78039CC07807118
:10193600C0078061C0078001C0078001C007800121
:10194600E0078001E0078001C0070000000000BC3E
:10195600BC000000000380300003C03C0003C03C14
:101966000003C0380003C0380003C0386003F838ED
:10197600F07FFFFFF003C0380003C0380003C03813
:101986000003DC39C003FFFFE007E383C03FC183E8
:10199600C07FC1C3803BC1C78003C0EF0003C0EF57
:1019A6000003C07E0003C07C0003C07C0003C0FEB1
:1019B600003BC3EF803F8787F80FBF03F807780027
:1019C600E000000000C4EA0000000000C0000001C2
:1019D600F0000001E0000003C000C003C001E00702
:1019E600FFFFF00703C0000E03C0001E03C0003C4B
:1019F60003C3007303C78063FFFFC00383C00003F4
:101A060083C0000383C0000383C0000383C0600358
:101A160083C0F07FFFFFF80003C0000003C0000092
:101A260003C0000003C0000003C0000003C00000A4
:101A360003C0000003C00000000000D4C200000084
:101A4600000000000000E0070000FFFF8000F00734
:101A56008000F0070000F0070000F0070000F00724
:101A66000000FFFF0000FFFF0000F0070000F00786
:101A76000000F0070000F0070000E0070000FFFF8D
:101A86000000E0070000E0070000E0070001E007B3
:101A96000001C0070001C00700038007000780F7A8
:101AA600000F007F001E001F0038001C0000000011
:101AB60000C8D5000000000000000003000300037A
:101AC600FFFF8003FFFF80038007000380070003FA
:101AD60080070003800700038007000380070003D8
:101AE6008007000380070003FFFF00038007000351
:101AF60080070003800700038007000380070003B8
:101B060080070003800700038007000380070003A7
:101B1600FFFF000380070003800700038007000320
:101B260000000000000000D0C70000000000000018
:101B3600000380070003FFFF800380070003800780
:101B4600000380070003FFFF0003800700038007F0
:101B56000003FFFF0003FFFF00038707000387C0A2
:101B66000003C7810003C7838007FFFFC007078004
:101B7600000F0780001E0786001C078F003BFFFF33
:101B8600807007800000078000000780E000078162
:101B9600F07FFFFFF80000000000000000C6DA003A
:101BA60000000006000000079E0000079E7FF00769
:101BB6009E7FF0079FF8F03FFFF8F01F9E78F00732
:101BC6009E78F0079E78F007FE7FF0079E78F00774
:101BD6009E78F0079E70F007FE70F0079E70F00783
:101BE6009E7FF0079FFFF03FFFF0F0119070F0032B
:101BF600DCF0F003DEE0F0078FE0F00F0FE0F00E10
:101C060007C0F01C038FF0380F03E0201C01C00052
:031C1600000000CB
:0A849C004202DDFFFF4202DF000094
:10000300E4FDFCC3ED9FEC9E5014E4FBFA0BBB0034
:0E001300010AEBF44A70F60DBD00010C80E509
:0100210022BC
:088408007E00128410E4FFFE67
:04841000AD07AC0602
:10841400ECFFAE05D2A5C2A7D2B2C2A68F90C2A568
:0C842400D2A5AF068F90C2A5D2A5D2A7AA
:018430002229
:0D83AE007E0012841090007AE0FEA3E0FF34
:0483BB00AD07AC0658
:1083BF00ECFFAE05D2A5C2A7D2B2D2A68F90C2A5AE
:0C83CF00D2A5AF068F90C2A5D2A5D2A700
:0183DB00227F
:08843100900332E0FEA3E0FF1E
:04843900AD07AC06D9
:10843D00ECFFAE05D2A5C2A7D2B2D2A68F90C2A52F
:0C844D00D2A5AF068F90C2A5D2A5D2A781
:018459002200
:0685B2007C107F037E0037
:0E85B800AB05AA04128410AE02AF030283BB0F
:108513007590FF7580FFC2A7D2A6C2B200AF90EFDD
:0E852300FED2B2C2B200AD90EDFFD2B2D2A72E
:018531002227
:10803700EF7026FD7C057F01FE1285B87D30128525
:10804700B29002D8E4F0A374DCF09002D6E4F0A377
:1080570074B0F0E49002DCF0227D007C047F017EA6
:10806700001285B87D381285B29002D8E4F0A37467
:10807700B0F09002D6E4F0A374DCF09002DC740157
:02808700F022E5
:1045C700D2B37F647E00128532C2B37F647E00124D
:1045D7008532D2B37F647E00128532E4FFFE1284F7
:1045E700101285139002DAEEF0A3EFF07BFF7A004A
:1045F7007926900003EEF0A3EFF01236EFE4FFFE0A
:104607001284107F017E001283BB7F0A7E00128610
:104617001C7F071284087F121284087FA47E001271
:1046270084107F017E001284107F0A7E0012861C90
:104637007F707E001284107F007E9B1283BB7F07F2
:104647007E001284107F317E001283BB7F187E00AC
:104657001284107F017E001283BB7F107E001284BC
:10466700107FB07E111283BB7F117E001284107FF2
:10467700077E001283BB7F127E001284107F177E95
:10468700101283BB7F137E001284107F0D7E85126C
:1046970083BB7F147E001284107F007E801283BB51
:1046A7007F127E001284107F3C7E101283BB7F96A0
:1046B7007E001200037F011284107F007E051283A3
:1046C700BB7F027E001284107F007E071283BB7FB0
:1046D700037E001284107F307E101283BB7F087E1A
:1046E700001284107408FFFE1283BB7F0B7E00123A
:1046F70084107F007E111283BB7F0C7E0012841012
:10470700E4FFFE1283BB7F0F7E001284107F017EC1
:10471700141283BB7F157E00128410E4FFFE128300
:10472700BB7F207E00128410E4FFFE1283BB7F2133
:104737007E00128410E4FFFE1283BB7F507E0012BE
:104747008410E4FFFE1283BB7F517E001284107F2A
:10475700AF7E001283BB7F527E00128410E4FFFEFF
:104767001283BB7F537E001284107FDB7E0012838F
:10477700BB7F707E001284107F007E1B1283BB7F7D
:10478700717E00128410E4FFFE1283BB7F907E00CF
:10479700128410E4FFFE1283BB7F917E0012841007
:1047A7007F007E011283BB7F927E001284107F01FF
:1047B7007E001283BB7F597E001284107F0C7E051A
:1047C7001283BB7F907E001284107F107E001283BD
:1047D700BB7F927E001284107F007E061283BB7F10
:1047E700077E001284107F337E021283BB7F327EE6
:1047F700001200037F22128410E4FF128037900218
:09480700DFE0FEA3E0FF027D7D6D
:057B5200E0FEA3E0FFCE
:107B570090007AEEF0A3EFF0A3ECF0A3EDF0900223
:107B6700DCE070357F50FE1283B07F517E001284B7
:107B770010AF03AE021283BB7F527E00128410A3A4
:107B87001283B67F537E001284109000801283B652
:107B97007F201283AE7F2180327F521283AE7F53C4
:107BA7007E00128410AE02AF031283BB7F507E00AB
:107BB700128410A31283B67F517E001284109000A6
:107BC700801283B67F211283AE7F207E001284103D
:0C7BD700A31283B67F227E0012841022CD
:0E74BE00900308EEF0A3EFF0A3ECF0A3EDF0C6
:1074CC00E4A3F0A304F0A3E4F0A304F09002D6E04C
:1074DC00FEA3E0FFC3900309E09F900308E09E50D9
:1074EC00159002D8E0FEA3E0FFC390030BE09F9041
:1074FC00030AE09E4004E4FEFF2290030AE0FCA392
:10750C00E0FD900308E0FAA3E0FBA3E0FFA3E0900A
:10751C000080CFF0A3EFF0900308127B521285137A
:10752C00AB07AA06128513AA06AB07EA131313546A
:10753C001FFF90030EE4F0A3EFF0EB7805CEC3131E
:10754C00CE13D8F9543FFF90030CE4F0A3EFF07C7A
:10755C0000EB541FFD90030CE0FEA3E07805C33351
:10756C00CE33CED8F9FBAA06ED33333354F84AFEAA
:10757C00EBFF90030EE04EFAA3E04FAC02AE04FF1B
:01758C0022DC
:087D7D00900000EEF0A3EFF00E
:107D8500E4A3F0A3F09002D7E024FFFB9002D6E035
:107D950034FFFA9002D9E024FFFE9002D8E034FFC8
:107DA500900080F0A3CEF0E4FDFCFFFE127B57E4CB
:107DB500FAFBD39002D7E09B9002D6E09A4039E4D3
:107DC500900002F0A3F09002D8E0FEA3E0FFC3907C
:107DD5000003E09F900002E09E5016900000128480
:107DE50034900003E004F070DD900002E004F080C0
:087DF500D50BBB00010A80BAA6
:017DFD002263
:10765700900044ECF0A3EDF0900042EEF0A3EFF0C1
:08766700900046EAF0A3EBF0ED
:10766F00E490004CF0A3F0D3EF9BEE9A4003027727
:10767F001F900048E0FEA3E0FF900044E0FCA3E071
:10768F00FD9FEC9E400302771FA3E0FAA3E0FB905F
:10769F000080EEF0A3EFF0900042127B5290004278
:1076AF00E0FEA3E0FFC3900047E09FFF900046E09D
:1076BF009ECF2401CF3400900042F0A3EFF0A3E05F
:1076CF00FEA3E0FFC3900049E09FFF900048E09EBB
:1076DF00CF2401CF3400900044F0A3EFF09000428C
:1076EF0074FFF5F01224EF45F06025900044E0FFA1
:1076FF00A3E090004CCFF0A3EFF090004C74FFF597
:10770F00F01224EF45F060D590004A12843480EADD
:01771F002247
:0E6D6B00900221EEF0A3EFF0A3ECF0A3EDF008
:106D7900900221E0FEA3E0FFC3EB9FFFEA9ECF2430
:106D890001CF340090022EF0A3EFF0900223E0FE31
:106D9900A3E0FFC3900228E09FFF900227E09ECF67
:106DA9002401CF340090022CF0A3EFF0900223E0ED
:106DB900FCA3E0FD900227E0FFA3E0900080CFF064
:106DC900A3EFF0900221127B52E4900230F0A3F07D
:106DD90090022CE0FEA3E0FFC3900231E09F9002F5
:106DE90030E09E5074E4900232F0A3F090022EE05D
:106DF900FEA3E0FF900232E0FAA3E0FBC39FEA9E04
:106E0900504690022EE0FCA3E0FDA3E0FEA3E0FFC4
:106E190012243CEB2FFFEA3EFEEF25E0FFEE33FEA6
:106E2900900229E0FBA3E0FAA3E0F98F828E831296
:106E39002505FFAEF0128439900233E004F070ACFE
:106E4900900232E004F080A4900231E004F07080F6
:096E5900900230E004F0026DD952
:016E6200220D
:1081EF009002E7FEE0FCA3E0FDC39002E4E09DFDFA
:0681FF009002E3E09CFC8D
:10820500AB07AA068D828C83C006C007AE83AF82FA
:10821500900080EEF0A3EFF0D007D006127B5790C8
:0A82250002DDE0FEA3E0FF02843951
:06812200FDE0FAA3E0FB02
:10812800900074EEF0A3EFF0900078EAF0A3EBF083
:10813800900076ECF0A3EDF0900074E0FAA3E0FB79
:10814800FFAE02C007A3E0FFA3E0900080CFF0A33A
:10815800EFF0D007127B57900078E0FEA3E0FF0213
:02816800843958
:107EF900900328EEF0A3EFF0A3ECF0A3EDF0A3EAD2
:107F0900F0A3EBF0128128900329E02401FF9003EC
:107F190028E03400FE90032AE0FCA3E0A3128122AA
:107F2900900328E0FEA3E0FF90032BE02401FD90DD
:107F3900032AE03400FC90032C128123900329E0EA
:107F49002401FF900328E03400FE90032BE0240174
:107F5900FD90032AE03400FC90032CE0FAA3E0FB37
:037F69000281286A
:0E506900900194EEF0A3EFF0A3ECF0A3EDF0B5
:10507700E490019CF0A3F0A3F0A3F0A3F0A3F090B9
:105087000194E0FEA3E0FFC3EB9FFFEA9E9001A21D
:10509700F0A3EFF0900196E0FAA3E0FBC390019B29
:1050A700E09BFE90019AE09A9001A4F0A3CEF090C5
:1050B7000194E0FFA3E09001ACCFF0A3EFF0A3EAE7
:1050C700F0A3EBF09001A2E0FEA3E0FFD39400EE83
:1050D70064809480400A9001A8E4F0A304F0802142
:1050E700EF4E70089001A8F0A3F0801574FF9001AF
:1050F700A8F0A3F0C3E49FFFE49E9001A2F0A3EF02
:10510700F09001A4E0FEA3E0FFD39400EE64809446
:1051170080400A9001AAE4F0A304F08021EF4E70CA
:10512700089001AAF0A3F0801574FF9001AAF0A3DC
:10513700F0C3E49FFFE49E9001A4F0A3EFF0900179
:10514700A4E0FEA3E0FF9001A2E0FCA3E0FDD39F53
:10515700EE6480F8EC6480989001A64007ECF0A319
:10516700EDF08005EEF0A3EFF0E490019CF0A3F0E2
:105177009001A7E02401FF9001A6E03400FED39040
:10518700019DE09F90019CE09E40030252579001D1
:10519700ACE0FEA3E0FFA3E0FCA3E0FD12820590D4
:1051A70001A2E0FEA3E0FF90019FE02FF090019E97
:1051B700E03EF09001A4E0FEA3E0FF9001A1E02F04
:1051C700F09001A0E03EF09001A6E0FEA3E0FF9082
:1051D700019EE0FCA3E0FDD39FEE6480F8EC6480C1
:1051E700984020ED9FFFEC9E90019EF0A3EFF0907A
:1051F70001A8E0FEA3E0FF9001ADE02FF09001AC25
:10520700E03EF09001A6E0FEA3E0FF9001A0E0FCE5
:10521700A3E0FDD39FEE6480F8EC6480984020ED16
:105227009FFFEC9E9001A0F0A3EFF09001AAE0FE93
:10523700A3E0FF9001AFE02FF09001AEE03EF090C9
:10524700019DE004F0700690019CE004F0025177A4
:015257002234
:0E52580090013AEEF0A3EFF0A3ECF0A3EDF01E
:10526600E4900146F0A3F0A3F0A3F090013AE0FE2B
:10527600A3E0FFC3EB9FFFEA9E90014AF0A3EFF085
:1052860090013CE0FAA3E0FBC3900141E09BFE9055
:105296000140E09A90014CF0A3CEF090013AE0FF75
:1052A600A3E0900154CFF0A3EFF0A3EAF0A3EBF054
:1052B60090014AE0FEA3E0FFD39400EE6480948060
:1052C600400A900150E4F0A304F08021EF4E7008EC
:1052D600900150F0A3F0801574FF900150F0A3F0F8
:1052E600C3E49FFFE49E90014AF0A3EFF090014CC7
:1052F600E0FEA3E0FFD39400EE64809480400A9021
:105306000152E4F0A304F08021EF4E7008900152A0
:10531600F0A3F0801574FF900152F0A3F0C3E49F50
:10532600FFE49E90014CF0A3EFF090014CE0FEA349
:10533600E0FF90014AE0FCA3E0FDD39FEE6480F815
:10534600EC64809890014E4007ECF0A3EDF08005E8
:10535600EEF0A3EFF0E4900144F0A3F090014FE0EB
:105366002401FF90014EE03400FED3900145E09FFA
:10537600900144E09E4003025444900154E0FEA391
:10538600E0FFA3E0FCA3E090014212812290014AD3
:10539600E0FEA3E0FF900147E02FF0900146E03EDB
:1053A600F090014CE0FEA3E0FF900149E02FF09061
:1053B6000148E03EF090014EE0FEA3E0FF9001467A
:1053C600E0FCA3E0FDD39FEE6480F8EC6480984097
:1053D60020ED9FFFEC9E900146F0A3EFF090015068
:1053E600E0FEA3E0FF900155E02FF0900154E03E6F
:1053F600F090014EE0FEA3E0FF900148E0FCA3E040
:10540600FDD39FEE6480F8EC6480984020ED9FFF0A
:10541600EC9E900148F0A3EFF0900152E0FEA3E06D
:10542600FF900157E02FF0900156E03EF0900145C5
:0E543600E004F07006900144E004F0025362BE
:015444002245
:10704E0090032EEEF0A3EFF0900332EAF0A3EBF0F4
:08705E00900330ECF0A3EDF00B
:1070660090032EE0FAA3E0FB24FFFFEA34FFFEC004
:1070760006C007ED24FFFDEC34FFFCEB2401FBE426
:107086003AFAA3E0FEA3E02401FFE43E900080F07C
:10709600A3EFF0D007D006127B57E4FBEBC39409AD
:1070A6007480948050061284310B80F090032FE098
:1070B60024FCFF90032EE034FFFEC007900330E06F
:1070C600FCA3E0FD90032FE02404FB90032EE034A4
:1070D60000FA900330E0FFA3E0900080CFF0A3EF2A
:1070E600F0D007127B57E4FBEBC3940974809480BD
:1070F60050061284310B80F0900331E024FCFD90A1
:107106000330E034FFFC90032EE0FAA3E0FBA3E09B
:10711600FEA3E02404FFE43E900080F0A3EFF0908D
:10712600032E127B52E4FBEBC394097480948050C7
:07713600061284310B80F00A
:01713D00222F
:107A1400900314EAF0A3EBF0900310EEF0A3EFF060
:107A2400A3ECF0A3EDF0C007A3E0FAA3E0FB9003FE
:107A340012E0FFA3E090019ACFF0A3EFF0D0071279
:107A44005069900310E0FAA3E0FBFFAE02C007A365
:107A5400E0FCA3E0FD900316E0FFA3E090019ACFC1
:107A6400F0A3EFF0D007125069900316E0FCA3E0F6
:107A7400FD900314E0FAA3E0FBA3E0FFA3E0900170
:107A84009ACFF0A3EFF0900310E0FEA3E0FF1250B2
:107A940069900314E0FAA3E0FBFFAE02C007900371
:107AA40012E0FCA3E0FD900316E0FFA3E090019A2E
:0A7AB400CFF0A3EFF0D007025069F5
:0E562E009002E1EEF0A3EFF0A3ECF0A3EDF09C
:10563C00E4A3F0A3F0EBFF7E00A3EEF0A3EFF025C4
:10564C00E0FFEE33FEC374039F9002EAF0E49E90F9
:10565C0002E9F09002E7E0FEA3E0FF9002E5E0FC37
:10566C00A3E0FDD39FEE6480F8EC648098400302C5
:10567C0058059002E2E02DFF9002E1E03C1281EF30
:10568C009002E7E0FEA3E0FF9002E2E02FFF900221
:10569C00E1E03E9002E51281F29002E7E0FEA3E029
:1056AC00FF9002E2E02FFF9002E1E03EFE9002E567
:1056BC00E0FCA3E0FD9002E4E02DFD9002E3E03C71
:1056CC00FC1282059002E5E0FEA3E0FF9002E2E00E
:1056DC002FFF9002E1E03EFE9002E7E0FCA3E0FD2C
:1056EC009002E4E02DFD9002E3E03CFC1282059078
:1056FC0002E5E0FEA3E0FFC39002E2E09FFF900210
:10570C00E1E09EFE9002E7E0FCA3E0FD9002E4E005
:10571C002DFD9002E3E03CFC1282059002E7E0FED6
:10572C00A3E0FFC39002E2E09FFF9002E1E09EFE47
:10573C009002E5E0FCA3E0FD9002E4E02DFD900278
:10574C00E3E03CFC1282059002E5E0FEA3E0FFC31F
:10575C009002E2E09FFF9002E1E09E1281EF900246
:10576C00E7E0FEA3E0FFC39002E2E09FFF9002E1BE
:10577C00E09EFE9002E51281F39002E6E004F070E8
:10578C00069002E5E004F0C39002E9E064809480A6
:10579C0050259002E5E0FEA3E07802C333CE33CE71
:1057AC00D8F92406FFE43EFE9002EAE02FF09002C6
:1057BC00E9E03EF002565F9002E7E0FEA3E0FFC393
:1057CC009002E6E09FFF9002E5E09EFEEF7802C3B8
:1057DC0033CE33CED8F9240AFFE43EFE9002EAE041
:1057EC002FF09002E9E03EF09002E8E024FFF09008
:0957FC0002E7E034FFF002565F01
:015805002280
:105ED300900026EEF0A3EFF090002AEBF09000285C
:055EE300ECF0A3EDF05E
:105EE80090002FECF0A3EDF090002BE0FF131313BC
:105EF800541FFEEF540760047F0180027F00EE2FDD
:105F0800FF90002BE0C313FEEF8EF0A4900031F059
:105F180090002AE024E0F0E4F9900031E0FFE9C3C2
:105F28009F400302605990002BE0FF7E00640C70D4
:105F38001290002AE075F00CA42433F582E5F034C1
:105F4800008033EF64104E701290002AE075F01054
:105F5800A424A7F582E5F03404801B90002BE064AC
:105F680018600302605990002AE075F024A4249771
:105F7800F582E5F0340AF583E58229F582E4358374
:105F8800F583E49390002DF0E490002EF090002E1D
:105F9800E0C3940874809480400302605590002DFB
:105FA800E030E713900026E0FEA3E0FFA3E0FCA3A7
:105FB800E0FD9002DD801790002CE0701490002620
:105FC800E0FEA3E0FFA3E0FCA3E0FD9002DF128166
:105FD8002390002DE025E0F0900029E004F0700601
:105FE800900028E004F09002D8E0FEA3E0FF9000C3
:105FF80028E0FCA3E0FDC39FEC9E505590002FE0E5
:10600800FEA3E0FFC3ED9FFDEC9EFC90002BE07A21
:1060180000B50530EAB5042C900028EEF0A3EFF0A7
:10602800900027E004F07006900026E004F090024B
:10603800D6E0FEA3E0FFC3900027E09F900026E093
:106048009E400A2290002EE004F0025F9509025F4C
:016058002126
:016059002224
:07808900C3EF9E14FD7F0A06
:08809000900334EFF0A3EDF0C2
:10809800A31226CD00000001900335E0FF14F0EF95
:1080A8006020A3E0F8A3E0F9A3E0FAA3E0FB9003C3
:1080B80034E0FFE4FCFDFE12256A9003361226C167
:1080C80080D6900336E0FCA3E0FDA3E0FEA3E0FF2A
:0180D8002285
:0E731000900296EEF0A3EFF0A3ECF0A3EDF0E8
:10731E00E49002A2F09002A0F090029EE0FF900294
:10732E00A0E0FEC39F40030273EB128089A804A95C
:10733E0005AA06AB0790029AE0FCA3E0FDA3E0FECF
:10734E00A3E0FF1225F5E47B0AFAF9F81225F59071
:10735E0002A1EBF0A3E0704590029EE014FF9002B4
:10736E00A0E0FEC39F5036A3E0702C90029FE0FB7E
:10737E00C3138EF0A4FF900297E02FFF900296E0C9
:10738E0035F0FE900298E0FCA3E0FD90002BEBF0B0
:10739E00E4A3F07B20803A9002A27401F090029F49
:1073AE00E0FAC313FFA3E0FEEF8EF0A4FF90029766
:1073BE00E02FFF900296E035F0FE900298E0FCA3DD
:1073CE00E0FD9002A1E02430FB90002BEAF0E4A354
:0D73DE00F0125ED39002A0E004F0027327CD
:0173EB00227F
:0E67E00090027AEEF0A3EFF0A3ECF0A3EDF040
:1067EE00E4900287F0900285F0900282E0FF900222
:1067FE0085E0FEC39F4003026908128089A804A9A0
:10680E0005AA06AB0790027EE0FCA3E0FDA3E0FE26
:10681E00A3E0FF1225F5E47B0AFAF9F81225F590AC
:10682E000286EBF0A3E060030268BF900282E014E0
:10683E00FF900285E0FEC39F5077A3E0706D90023B
:10684E0084E0F990028330E72BE0FBC3138EF0A4B3
:10685E00FF90027BE02FFF90027AE035F0FE90026F
:10686E007CE0FCA3E0FD90002BEBF0E95401A3F0DB
:10687E007B30807AE0FBC313FF900285E0FEEF8E43
:10688E00F0A4FF90027BE02FFF90027AE035F0FE3D
:10689E0090027CE0FCA3E0FD90002BEBF0900284D4
:1068AE00E0540190002CF07B20804390028774010D
:1068BE00F0900283E0FAC313FF900285E0FEEF8EA4
:1068CE00F0A4FF90027BE02FFF90027AE035F0FEFD
:1068DE0090027CE0FCA3E0FD900286E02430FB9069
:1068EE00002BEAF0900284E0540190002CF0125E2E
:0A68FE00D3900285E004F00267F772
:01690800226C
:10722B00900019EEF0A3EFF0A3ECF0A3EDF0A3EABE
:04723B00F0A3EBF0E1
:10723F00900019E0FEA3E0FF900025F090001EE003
:10724F002FF090001DE03EF090001BE0FEA3E0FF4A
:10725F00900020E02FF090001FE03EF0900022E021
:10726F00FBA3E0FAA3E0F91223C2FFD3947E4003FD
:10727F0002730FEFC39420500302730F90001DE0B1
:10728F00FEA3E0FF90001AE09F900019E09E401FC0
:10729F00900025E0FF900019E4F0A3EFF09000219B
:1072AF00E0FF90001CE02FF090001BE03400F09006
:1072BF00001FE0FEA3E0FF90001BE0FCA3E0FDC376
:1072CF009FEC9E503B900019E0FEA3E0FF1223C2FB
:1072DF00FB900021E090002BF0E4A3F0125ED3901E
:1072EF000021E0C313FF90001AE02FF0900019E087
:1072FF003400F0900023E475F0011224D902726B70
:01730F00225B
:106431009002EBEEF0A3EFF0A3ECF0A3EDF0A3EBF1
:07644100F0A3EAF0A3E9F06B
:106448009002EFE0FBA3E0FAA3E0F91223C2700385
:106458000265729002EBE0FAA3E0FBFFAE02C00611
:10646800C007A3E0FCA3E0FDEB241FFBE43AFA908D
:1064780002EDE0FEA3E0241CFFE43E900080F0A3C0
:10648800EFF0D007D006127B57E49002F2F09002AA
:10649800F2E0FFC39414748094804003026557901F
:1064A80002EFE0FBA3E0FAA3E0F91223C2FE75F0C5
:1064B80076EFA424F3F582E5F03417F583E4936EC0
:1064C800600302654E9000011223DBFF9002F2E0A8
:1064D80075F076A424F4F582E5F03417F583E49397
:1064E8006F7063FBEBC3947474809480505890026F
:1064F800F2E075F076A424F5F582E5F03417F5831B
:10650800E5822BF582E43583F583E493FF9002F36B
:10651800E4F0A3EFF0E4FAEAC3940874809480509E
:10652800229002F4E030E7059002DD80039002DF5C
:106538001284349002F4E025E0F09002F3E033F0A6
:106548000A80D40B809E9002F2E004F002649690D8
:1065580002F0E475F0021224D99002ECE02420F055
:0A6568009002EBE03400F0026448FA
:016572002206
:1066B30090020CEEF0A3EFF0A3ECF0A3EDF0A3EA4D
:0466C300F0A3EBF065
:1066C700E4900217F0A3F0A31226CD00000000907B
:1066D700021D1226CD0000000090020EE0FCA3E090
:1066E700FDA3E0FEA3E0FF90020CE0FAA3E02FFF7A
:1066F700EA3ECF24FFFBEF34FFFA900212E0FEA33D
:10670700E0FF90020EE0F8A3E02FFFE83ECF24FF62
:10671700CF34FF900080F0A3EFF090020C127B5271
:10672700900212E0FCA3E0FD900210E0FEA3E0FF60
:1067370012243CEF25E0FFEE33FEE4FCFD90021D42
:106747001226C1900219A3A3E0FEA3E0FDAC062424
:1067570001FFE43CFE900214E0FBA3E0FAA3E0F99A
:106767008F828E831223DBFF900217E4F0A3EFF0F2
:10677700E0F8E4F0E8900217F08D828C831223DBB7
:10678700FF900217E0FEA3E04FFF900217EEF0FE26
:10679700A3EFF0128439A3E0FCA3E0FDA3E0FEA37E
:1067A700E02402FFE43EFEE43DFDE43CFC900219D8
:1067B7001226C190021DE0FCA3E0FDA3E0FEA3E0CA
:1067C700FF900219E0F8A3E0F9A3E0FAA3E0FBC306
:0867D700122687500302674AF5
:0167DF002297
:0B862700C2A1D2A3D2A2D2A1C2A32202
:1084A700C2A1E4FEEEC39408748094805016EFC412
:1084B700131313540124FF92A2EF25E0FFC2A1D2A8
:0484C700A10E80E0A2
:0184CB00228E
:1082A700E490003EF0A3F0C2A1FDFC90003FE02562
:1082B700E0F090003EE033F0D2A1C2A1A2A0E433E7
:1082C700FFE0F0A3E04FF00DBD00010CED640C4C96
:0A82D70070D990003EE0FEA3E0FF26
:0182E100227A
:075BA000EEF0A3EFF07F908F
:025BA700AB074A
:105BA900C2A1C2A3E4900024F0900024E0C3940AA7
:105BB900748094805042AF031284A7A37406F090B6
:105BC9000025E0D39400748094804005E014F080AF
:105BD900EED2A10000C2A100001282A7900024E029
:105BE90025E02426F582E43400F583EEF0A3EFF0F6
:105BF900900024E004F080B1D2A3E4900024F09056
:105C09000024E0FFC39409748094804003025CC6B9
:105C1900EF04A3F0900025E0FFC3940A74809480F8
:105C29004003025CBDEF25E02426F582E43400F54B
:105C390083E0FEA3E0FF900024E0FB25E02426F5A5
:105C490082E43400F583E0FCA3E0C39FEC9E505B43
:105C5900EB25E02426F582E43400F583E0FEA3E099
:105C6900FFE4FCFD90003A1226C1900025E0FA25D8
:105C7900E02426F582E43400F583E0FEA3E0FFEB9F
:105C890025E02426F582E43400F583EEF0A3EFF055
:105C990090003AA3A3E0FEA3E0FFEA25E02426F55D
:105CA90082E43400F583EEF0A3EFF0900025E004E0
:105CB900F0025C1D900024E004F0025C0890003AB8
:105CC9001226CD000000009000247402F0900024F8
:105CD900E0C3940874809480503F90003AE0F8A3A0
:105CE900E0F9A3E0FAA3E0FB900024E025E02426F4
:105CF900F582E43400F583E0FEA3E0FFE4FCFDEB6C
:105D09002FFFEA3EFEED39FDEC38FC90003A1226F1
:105D1900C1900024E004F080B490003AE0FCA3E0D4
:105D2900FDA3E0FEA3E0FFE47B06FAF9F812816A1D
:105D390090003A1226C190003AA3A3E0FEA3E0FF27
:015D49002237
:106B4B001286277FD0125BA790001A125BA09000D1
:106B5B0020EEF0A3EFF07FD0125BA790001C125B2E
:106B6B00A0AD07AC0690001CE0FEA3E0FF90001A5E
:106B7B00E0FAA3E0FBD39FEA9E400AA3A3EB9FFF9F
:106B8B00EA9EA3801790001AE0FEA3E0FFC39000DB
:106B9B001DE09FFF90001CE09E90001EF0A3EFF005
:106BAB00900020E0FEA3E0FFD39DEE9C4007EF9DFD
:106BBB00FFEE9C800E900020E0FEA3E0FFC3ED9F54
:106BCB00FFEC9EA3F0A3EFF0D390001FE094329064
:106BDB00001EE09400500E900023E09432900022AF
:106BEB00E0940040037F002290001CE0FEA3E0FF36
:106BFB0090001BE02FFF90001AE03EC313FEEF1333
:106C0B00FF9002A3EEF0A3EFF0900021E02DFF9098
:106C1B000020E03CC313FEEF13FF9002A5EEF0A3A0
:106C2B00EFF09002A4E054F0F09002A6E054F0F0E4
:106C3B00C39002A4E094649002A3E09400400FD3AD
:106C4B009002A6E094D89002A5E0940E40037F003A
:036C5B00227F0194
:016C5E002213
:10657300E4900019F0126B4BEF70030266A89002CF
:10658300DCE0600302660E9002A3E0FEA3E0FFE4FA
:10659300FCFD9002A71226C19002A7E0FCA3E0FD38
:1065A300A3E0FEA3E02406FFEE34FFFEED34FFFD7F
:1065B300EC34FFFCE47BB4FAF9F812256AE47B744B
:1065C3007A0EF9F81225F59002A71226C19002A5BA
:1065D300E0FEA3E0FFE4FCFD9002AB1226C19002B3
:1065E300ABE0FCA3E0FDA3E0FEA3E024A2FFEE34B6
:1065F300FEFEED34FFFDEC34FFFCE47BFAFAF9F820
:1066030012256AE47BAC7A0D0266959002A5E0FE42
:10661300A3E0FFC3E49FFF74109EFEE4FCFDA312FE
:1066230026C19002A7E0FCA3E0FDA3E0FEA3E024C3
:10663300A2FFEE34FEFEED34FFFDEC34FFFCE47B01
:10664300FAFAF9F812256AE47BAC7A0DF9F8122507
:10665300F59002A71226C19002A3E0FEA3E0FFE497
:10666300FCFD9002AB1226C19002ABE0FCA3E0FD5F
:10667300A3E0FEA3E02406FFEE34FFFEED34FFFDAE
:10668300EC34FFFCE47BB4FAF9F812256AE47B747A
:106693007A0EF9F81225F59002AB1226C190001973
:0F66A3007401F08001E49002AFF0900019E0FF65
:0166B20022C5
:067DFE009003181226C1DB
:107E0400900318E0FCA3E0FDA3E0FEA3E0FF7813D9
:107E14001226AEA3EEF0A3EFF0900318E0FCA3E06B
:107E2400FDA3E0FEA3E0FF780A1226AEEF543FFE66
:107E3400E490031EF0A3CEF0900318E0FCA3E0FD51
:107E4400A3E0FEA3E0FF78031226AEEF541FFFE485
:107E5400AD07FC90031EE0FEA3E07805C333CE33E8
:107E6400CED8F9FBAA0690031DE033333354F84A05
:097E7400FEEBFFEE4CFEEF4DFFAA
:017E7D0022E2
:04822F00AD07AC06E5
:108233007BE77A187E00ED54037803C333CE33CE45
:10824300D8F9FFEA4EFAEB4FFB7E00ED541C78069B
:10825300C333CE33CED8F9FFEA4EFAEB4FFBED54DE
:07826300E04AFAEBAE02FF56
:01826A0022F1
:0880D90090033AEFF0A3EDF073
:1080E100A31226CD0000000190033BE0FF14F0EF46
:1080F1006020A3E0F8A3E0F9A3E0FAA3E0FB90037A
:108101003AE0FFE4FCFDFE12256A90033C1226C111
:1081110080D690033CE0FCA3E0FDA3E0FEA3E0FFDA
:01812100223B
:107F6C009003201226C1900324E0FCA3E0FDA3E0C3
:107F7C00FEA3E0FF900320E0F8A3E0F9A3E0FAA34E
:107F8C00E0FBD312269D401D900324E0F8A3E0F9FA
:107F9C00A3E0FAA3E0FB900320E0FCA3E0FDA3E048
:107FAC00FEA3E0801A900320E0F8A3E0F9A3E0FA26
:107FBC00A3E0FBA3E0FCA3E0FDA3E0FEA3E0C39BD6
:0B7FCC00FFEE9AFEED99FDEC98FC2200
:08826B00900345EEF0A3EFF0D3
:108273009002DDE0FFA3E0900347CFF0A3EFF0AF60
:10828300039002DDEAF0A3EFF0900345E0FEA3E0E4
:10829300FF128205900347E0FFA3E09002DDCFF0D9
:0382A300A3EFF056
:0182A60022B5
:106E6300900259EEF0A3EFF0A3ECF0A3EDF0A3EA48
:046E7300F0A3EBF0AD
:106E7700E4900264F0A3F090025DE0FEA3E0FFC39C
:106E8700900265E09F900264E09E4003026F59E420
:106E9700900266F0A3F090025FE0FEA3E0FFC390CC
:106EA7000267E09F900266E09E4003026F459002F2
:106EB70064E0FEA3E0FF90025AE02FFF900259E042
:106EC7003EFE900266E0FCA3E0FD90025CE02DFD33
:106ED70090025BE03CFC1274BE900268EEF0A3EFF8
:106EE700F0900261E0FCA3E0FDA3E0FB12713E908D
:106EF7000268EEF0A3EFF0900264E0FEA3E0FF90DB
:106F0700025AE02FFF900259E03EFE900266E0FC35
:106F1700A3E0FD90025CE02DFD90025BE03CFC905D
:106F27000268E0FAA3E0FB128128900267E004F010
:106F37006003026E9D900266E004F0026E9D90026F
:106F470065E004F06003026E7E900264E004F002E4
:026F57006E7E4C
:016F59002215
:106F5A00900068ECF0A3EDF0A3EAF0A3EBF0900048
:066F6A0066EEF0A3EFF05B
:106F7000C39401EE94004013E024FFFE900066E00D
:106F800034FF900070F0A3CEF0800F900066E0FF19
:106F9000A3E0900070CFF0A3EFF0900068E0FEA3B4
:106FA000E0FFC39401EE9400400CEF24FFFFEE34A9
:106FB000FF900072800B900068E0FFA3E0900072E9
:106FC000CFF0A3EFF0900072E0FFA3E090006CCF51
:106FD000F0A3EFF0900069E02402FF900068E03435
:106FE00000FEC390006DE09F90006CE09E505E90AC
:106FF0000070E0FFA3E090006ECFF0A3EFF09000F0
:1070000067E02402FD900066E03400FC90006EE032
:10701000FEA3E0FFC39DEE9C502390006CE0FCA318
:10702000E0FD90006AE0FAA3E0FB12812890006F77
:10703000E004F070C990006EE004F080C190006D33
:0D704000E004F0708F90006CE004F0808799
:01704D002220
:0E4E7600900158EEF0A3EFF0A3ECF0A3EDF0E6
:104E8400E4900164F0A3F0A3F0A3F0900158E0FED5
:104E9400A3E0FFC3EB9FFFEA9E900168F0A3EFF04D
:104EA40090015AE0FAA3E0FBC390015FE09BFE90FF
:104EB400015EE09A90016AF0A3CEF0900158E0FF01
:104EC400A3E0900172CFF0A3EFF0A3EAF0A3EBF01C
:104ED400900168E0FEA3E0FFD39400EE6480948028
:104EE400400A90016EE4F0A304F08021EF4E7008B4
:104EF40090016EF0A3F0801574FF90016EF0A3F0A2
:104F0400C3E49FFFE49E900168F0A3EFF090016A70
:104F1400E0FEA3E0FFD39400EE64809480400A9006
:104F24000170E4F0A304F08021EF4E70089001704A
:104F3400F0A3F0801574FF900170F0A3F0C3E49F18
:104F4400FFE49E90016AF0A3EFF090016AE0FEA3F3
:104F5400E0FF900168E0FCA3E0FDD39FEE6480F8DD
:104F6400EC64809890016C4007ECF0A3EDF08005B0
:104F7400EEF0A3EFF0E4900162F0A3F090016DE095
:104F84002401FF90016CE03400FED3900163E09FA4
:104F9400900162E09E4003025068900172E0FEA31B
:104FA400E0FFA3E0FCA3E0FD900160E0FAA3E0FBD6
:104FB400128128900168E0FEA3E0FF900165E02FD4
:104FC400F0900164E03EF090016AE0FEA3E0FF90FF
:104FD4000167E02FF0900166E03EF090016CE0FE86
:104FE400A3E0FF900164E0FCA3E0FDD39FEE6480A6
:104FF400F8EC6480984020ED9FFFEC9E900164F0F3
:10500400A3EFF090016EE0FEA3E0FF900173E02FA8
:10501400F0900172E03EF090016CE0FEA3E0FF909E
:105024000166E0FCA3E0FDD39FEE6480F8EC6480AD
:10503400984020ED9FFFEC9E900166F0A3EFF09066
:105044000170E0FEA3E0FF900175E02FF090017481
:10505400E03EF0900163E004F07006900162E00429
:04506400F0024F8087
:015068002225
:103C5A009000FCEEF0A3EFF0A3ECF0A3EDF0A3EAE2
:043C6A00F0A3EBF0E8
:103C6E00E4900109F0A3F0A3F0A3F0900104E0FFAB
:103C7E007E00C39000FDE09F9000FCE09E5003028A
:103C8E003EC5900101E09F900100E09E5003023E70
:103C9E00C59000FEE0FCA3E0FD9FEC9E5003023EAB
:103CAE00C5900103E09F900102E09E5003023EC5C5
:103CBE00900104E070139000FCE0FEA3E0FF900181
:103CCE0005E0FAA3E0FB0281289000FCE0FAA3E0F5
:103CDE00FBC3900101E09BFE900100E09A90010D64
:103CEE00F0A3CEF09000FEE0FEA3E0FFC390010330
:103CFE00E09FFF900102E09E90010FF0A3EFF09085
:103D0E000117EAF0A3EBF09000FEA3E0FF9001197B
:103D1E00EEF0A3EFF090010DE0FEA3E0FFD39400D0
:103D2E00EE64809480400A900113E4F0A304F080C6
:103D3E0021EF4E7008900113F0A3F0801574FF90E0
:103D4E000113F0A3F0C3E49FFFE49E90010DF0A3D6
:103D5E00EFF090010FE0FEA3E0FFD39400EE64803D
:103D6E009480400A900115E4F0A304F08021EF4EF8
:103D7E007008900115F0A3F0801574FF900115F0F6
:103D8E00A3F0C3E49FFFE49E90010FF0A3EFF09029
:103D9E00010FE0FEA3E0FF90010DE0FCA3E0FDD3D8
:103DAE009FEE6480F8EC6480989001114007ECF06F
:103DBE00A3EDF08005EEF0A3EFF0E4900107F0A381
:103DCE00F0900112E02401FF900111E03400FED3C7
:103DDE00900108E09F900107E09E4003023EC590CF
:103DEE000119E0FCA3E0FD900104E0FB7A00A3E0E2
:103DFE00FFA3E09001B6CFF0A3EFF0900117E0FE25
:103E0E00A3E0FF1232E490010DE0FEA3E0FF90016B
:103E1E000AE02FF0900109E03EF090010FE0FEA3C2
:103E2E00E0FF90010CE02FF090010BE03EF09001CE
:103E3E0011E0FEA3E0FF900109E0FCA3E0FDD39F9B
:103E4E00EE6480F8EC6480984020ED9FFFEC9E902D
:103E5E000109F0A3EFF0900113E0FEA3E0FF900143
:103E6E0018E02FF0900117E03EF0900111E0FEA354
:103E7E00E0FF90010BE0FCA3E0FDD39FEE6480F821
:103E8E00EC6480984020ED9FFFEC9E90010BF0A318
:103E9E00EFF0900115E0FEA3E0FF90011AE02FF085
:103EAE00900119E03EF0900108E004F070069001D8
:073EBE0007E004F0023DCF14
:013EC50022DA
:0E2B750090011BEEF0A3EFF0A3ECF0A3EDF047
:102B8300E4900128F0A3F0A3F0A3F090011BE0FE72
:102B9300A3E0FFC3EB9FFFEA9E90012CF0A3EFF0AD
:102BA30090011DE0FAA3E0FBC3900122E09BFE909D
:102BB3000121E09A90012EF0A3CEF090011BE0FFDB
:102BC300A3E0900136CFF0A3EFF0A3EAF0A3EBF07C
:102BD30090012CE0FEA3E0FFD39400EE6480948088
:102BE300400A900132E4F0A304F08021EF4E700814
:102BF300900132F0A3F0801574FF900132F0A3F03E
:102C0300C3E49FFFE49E90012CF0A3EFF090012E0C
:102C1300E0FEA3E0FFD39400EE64809480400A902A
:102C23000134E4F0A304F08021EF4E7008900134E6
:102C3300F0A3F0801574FF900134F0A3F0C3E49F78
:102C4300FFE49E90012EF0A3EFF090012EE0FEA38F
:102C5300E0FF90012CE0FCA3E0FDD39FEE6480F83D
:102C6300EC6480989001304007ECF0A3EDF0800510
:102C7300EEF0A3EFF0E4900126F0A3F0900131E031
:102C83002401FF900130E03400FED3900127E09F40
:102C9300900126E09E4003022F3E900123E070192D
:102CA300900136E0FEA3E0FFA3E0FCA3E0FD90016A
:102CB30024E0FAA3E0FB128128900123E064016081
:102CC30003022D49900136E0FEA3E0FFA3E0FCA33D
:102CD300E0FD900124E0FAA3E0FB12812890013784
:102CE300E02401FF900136E03400FE900138E0FC5F
:102CF300A3E0FD900124E0FAA3E0FB1281289001F8
:102D030036E0FEA3E0FF900139E02401FD90013895
:102D1300E03400FC900124E0FAA3E0FB1281289048
:102D23000137E02401FF900136E03400FE900139C1
:102D3300E02401FD900138E03400FC900124E0FA26
:102D4300A3E0FB128128900123E064026003022EBA
:102D53008D900136E0FEA3E0FFA3E0FCA3E0FD902D
:102D63000124E0FAA3E0FB128128900137E024015B
:102D7300FF900136E03400FE900138E0FCA3E0FD53
:102D8300900124E0FAA3E0FB128128900136E0FED3
:102D9300A3E0FF900139E02401FD900138E0340005
:102DA300FC900124E0FAA3E0FB128128900137E0B4
:102DB3002401FF900136E03400FE900139E0240144
:102DC300FD900138E03400FC900124E0FAA3E0FB1D
:102DD300128128900137E024FFFF900136E034FF91
:102DE300FE900139E02401FD900138E03400FC90AD
:102DF3000124E0FAA3E0FB128128900137E02401CB
:102E0300FF900136E03400FE900139E024FFFD908D
:102E13000138E034FFFC900124E0FAA3E0FB1281C7
:102E230028900137E024FFFF900136E034FFFE9045
:102E33000139E024FFFD900138E034FFFC900124C8
:102E4300E0FAA3E0FB128128900137E024FFFF9012
:102E53000136E034FFFE900138E0FCA3E0FD900171
:102E630024E0FAA3E0FB128128900136E0FEA3E000
:102E7300FF900139E024FFFD900138E034FFFC901E
:102E83000124E0FAA3E0FB12812890012CE0FEA3C9
:102E9300E0FF900129E02FF0900128E03EF090013F
:102EA3002EE0FEA3E0FF90012BE02FF090012AE03B
:102EB3003EF0900130E0FEA3E0FF900128E0FCA388
:102EC300E0FDD39FEE6480F8EC6480984020ED9F92
:102ED300FFEC9E900128F0A3EFF0900132E0FEA3F7
:102EE300E0FF900137E02FF0900136E03EF09001D3
:102EF30030E0FEA3E0FF90012AE0FCA3E0FDD39FB6
:102F0300EE6480F8EC6480984020ED9FFFEC9E9087
:102F1300012AF0A3EFF0900134E0FEA3E0FF90015B
:102F230039E02FF0900138E03EF0900127E004F003
:0B2F33007006900126E004F0022C7FE5
:012F3E002270
:107ABE00FAE0FFA3E090003ECFF0A3EFF090002895
:057ACE00E0FEA3E0FF53
:107AD300900038EEF0A3EFF0A3ECF0A3EDF0A3EAEF
:107AE300F0A3EBF04A60679002D6E0FCA3E0FD90C0
:107AF3000038E0FAA3E0FBD39DEA9C50519002D8F2
:107B0300E0FEA3E0FF90003AE0FCA3E0FD9FEC9EC3
:107B1300503CAF03AE02C006C007A3E0FEA3E0FFE4
:107B230090003AE0F8A3E02FFFE83ECF24FFCF34E4
:107B3300FF900048F0A3EFF090003EE0FFA3E09039
:0F7B4300004ACFF0A3EFF0D007D00612765722FA
:107E7E00900038EEF0A3EFF0A3ECF0A3EDF0EB4A98
:107E8E0060689002D6E0FEA3E0FFD3900039E09F39
:107E9E00900038E09E50539002D8E0FEA3E0FF9091
:107EAE00003AE0FCA3E0FD9FEC9E503EAE02AF0315
:107EBE00900038E0FAA3E02FFFEA3ECF24FFFBEF5D
:107ECE0034FFFAA3E0FFA3E0900048CFF0A3EFF059
:107EDE0090003EE0FFA3E090004ACFF0A3EFF090B9
:0B7EEE000038E0FEA3E0FF12765722F0
:1061A400900288EEF0A3EFF0A3ECF0A3EDF0A3EAE5
:0461B400F0A3EBF079
:1061B800A3E07002A3E070030262EA90028CE07030
:1061C80002A3E070030262EA900293E020E0030277
:1061D8006267E4A3F0A3F090028CE0FEA3E0FF90D6
:1061E8000294E0FCA3E0FDC39FEC9E40030262EA38
:1061F800900289E02DFF900288E03CFEC006C007AF
:1062080090028AE0FCA3E0FD90028FE024FFFB905F
:10621800028EE034FFFAC002C003900295E025E048
:10622800FF900294E033FE900290E0FBA3E0FAA313
:10623800E0F98F828E83122505FF90003EE5F0F08D
:10624800A3EFF0D003D002D007D006127AD3900281
:1062580095E004F07081900294E004F00261DFE4BC
:10626800900294F0A3F090028EE0FEA3E0FF90026B
:1062780094E0FCA3E0FDC39FEC9E506690028BE087
:106288002DFD90028AE03CFC90028DE024FFFB90FB
:10629800028CE034FFFAC002C003900295E025E0CA
:1062A800FF900294E033FE900290E0FBA3E0FAA393
:1062B800E0F98F828E83122505FF90003EE5F0F00D
:1062C800A3EFF0900288E0FEA3E0FFD003D0021213
:1062D8007E7E900295E004F0708C900294E004F0C9
:0262E8008084B0
:0162EA002291
:065445009001761226C161
:10544B00E4900192F0A3F0900176E0FCA3E0FDA3C1
:10545B00E0FEA3E0FF78101226AE900183EFF0FB85
:10546B00900176E0FCA3E0FDA3E0FEA3E0FF78084B
:10547B001226AE900184EFF0FA900176A3A3A3E07D
:10548B00FFA907900185E9F090017AE0FCA3E0FD0C
:10549B00A3E0FEA3E0FF78101226AEEBFDC3EF9D59
:1054AB00FFEE9400900186F0A3EFF090017AE0FC00
:1054BB00A3E0FDA3E0FEA3E0FF78081226AEEAFD11
:1054CB00C3EF9DFEE49400900188F0A3CEF0900111
:1054DB007AA3A3A3E0FFE9FDC3EF9DFEE494009044
:1054EB00018AF0A3CEF0E4900192F0A3F090018139
:1054FB00E0FEA3E0FFC3900193E09F900192E09E3A
:10550B00400302562DE0FAA3E0FB900186E0FEA3D8
:10551B00E0FFAD03AC0212243C900181E0FCA3E060
:10552B00FD12244EA3E07C002FFFEC3E90018CF08B
:10553B00A3EFF0900188E0FEA3E0FFAD03AC0212F5
:10554B00243C900181E0FCA3E0FD12244E900184E9
:10555B00E07C002FFFEC3E90018EF0A3EFF090016A
:10556B008AE0FEA3E0FFAD03AC0212243C90018164
:10557B00E0FCA3E0FD12244E900185E07C002FFFA0
:10558B00EC3E900190F0A3EFF090018CE0FEA3E0D5
:10559B007803CEC313CE13D8F9F0EE90018CF090B4
:1055AB00018EE0FEA3E07802CEC313CE13D8F9F040
:1055BB00EE90018EF0900190E0FEA3E07803CEC355
:1055CB0013CE13D8F9F0EE900190F090018EE0FE1F
:1055DB00A3E07805C333CE33CED8F9FDAC069001EA
:1055EB008DE033333354F84CFEEDFF900190E04ED9
:1055FB00FCA3E04FFDEB25E0FFEA33FE90017EE0DC
:10560B00FBA3E0FAA3E0F98F828E83EC8DF01225D9
:10561B003D900193E004F07006900192E004F002DB
:02562B0054F831
:01562D00225A
:106C5F009001DFEEF0A3EFF0A3ECF0A3EDF0A3EAC9
:046C6F00F0A3EBF0B3
:106C73009001EBE0FCA3E0FDA3E0FEA3E0FF9001A5
:106C83007A1226C19001F3E0F9A3E0FAA3E09001A0
:106C93007EC9F0A3EAF0A3E9F09001E3E0FFA3E0EB
:106CA300900181CFF0A3EFF09001E7E0FCA3E0FDBA
:106CB300A3E0FEA3E0FF125445E49001EFF0A3F03C
:106CC3009001E3E0FEA3E0FFC39001F0E09F900199
:106CD300EFE09E4003026D6AE49001F1F0A3F090AF
:106CE30001E5E0FEA3E0FFC39001F2E09F9001F114
:106CF300E09E505F9001EFE0FAA3E0FB9001E0E03B
:106D03002BFF9001DFE03AFEC006C0079001F1E0DF
:106D1300FEA3E0FF9001E2E02FFD9001E1E03EFCE5
:106D2300EB25E0FFEA33FE9001F3E0FBA3E0FAA3D7
:106D3300E0F98F828E83122505FBAAF0D007D006D7
:106D43001281289001F2E004F070949001F1E004C4
:106D5300F0808C9001F0E004F06003026CC39001BA
:076D6300EFE004F0026CC335
:016D6A002206
:107720009002F5EEF0A3EFF0A3ECF0A3EDF0A3EAE6
:10773000F0A3EBF0C0079002FDE0FFA3E090003E55
:10774000CFF0A3EFF0D007127E7E9002FBE0FEA305
:10775000E0FF9002F8E02FFF9002F7E03ECF24FF19
:10776000FDEF34FFFC9002F9E0FAA3E0FB9002FD8C
:10777000E0FFA3E090003ECFF0A3EFF09002F5E031
:10778000FEA3E0FF127E7E9002F7E0FCA3E0FD90F6
:1077900002FBE0FAA3E0FBA3E0FFA3E090003ECFF2
:1077A000F0A3EFF09002F5127ACE9002F9E0FEA37A
:1077B000E0FF9002F6E02FFF9002F5E03ECF24FFBD
:1077C000CF34FFFEC0079002F7E0FCA3E0FD90027B
:1077D000FBE0FAA3E0FBA3E0FFA3E090003ECFF0C4
:0877E000A3EFF0D007027AD3F9
:101C1900900028EEF0A3EFF0A3ECF0A3EDF0A3EA17
:041C2900F0A3EBF049
:101C2D00E4900036F0A3F090002EE0FEA3E030E04B
:101C3D000A2401FFE43E900036800B90002EE0FF59
:101C4D00A3E0900036CFF0A3EFF0900031E09000CC
:101C5D00307003021E78E0F975F002A4FFC3900006
:101C6D002DE09FFB90002CE095F0FAE9FF90002904
:101C7D00E02FFF900028E03400FEC00790002AE01E
:101C8D00FCA3E0FD900036E0C313FFA3E01390002A
:101C9D003ECFF0A3EFF0900032E0FFA3E0900040C4
:101CAD00CFF0A3EFF0D007127C83900030E0F975F0
:101CBD00F002A4FFC390002DE09FFB90002CE09557
:101CCD00F0FAE9FF900029E02FFF900028E03400A2
:101CDD00FEC006C007900036E0C313FEA3E013FF5D
:101CED0090002BE02FFD90002AE03EFC900036E0A6
:101CFD00C313FFA3E01390003ECFF0A3EFF09000CD
:101D0D0034E0FFA3E0900040CFF0A3EFF0D007D078
:101D1D0006127C83900030E0F9FB7A0090002BE0F6
:101D2D002BFD90002AE03AFC900036E0C313FEA391
:101D3D00E013FFE9F582C3EF9582FFEE940090006A
:101D4D003EF0A3EFF0900032127C6F900036E0C3AE
:101D5D0013FEA3E013FF90002BE02FFD90002AE06F
:101D6D003EFC900030E0F9FB7A00900036E0C313A2
:101D7D00FEA3E013FFE9F582C3EF9582FFEE940019
:101D8D0090003EF0A3EFF0900034127C6F90002C89
:101D9D00E0FEA3E0FF900029E02FFF900028E03E39
:101DAD00FE900030E0F9FD7C00C3EF9DFFEE9CFE40
:101DBD00C006C00790002BE02DFD90002AE03CFCF2
:101DCD00E9FB7A00900036E0C313FEA3E013FFE9B0
:101DDD00F582C3EF9582FFEE940090003EF0A3EFE5
:101DED00F0900032E0FFA3E0900040CFF0A3EFF0C1
:101DFD00D007D006127C8390002CE0FEA3E0FF906C
:101E0D000029E02FFF900028E03EFE900030E0F921
:101E1D00FB7A00C3EF9BFFEE9AFEC006C007900051
:101E2D0036E0C313FEA3E013FF90002BE02FFD90CF
:101E3D00002AE03EFC900036E0C313FEA3E013FF42
:101E4D00E9F582C3EF9582FFEE940090003EF0A37A
:101E5D00EFF0900034E0FFA3E0900040CFF0A3EF4F
:101E6D00F0D007D006127C8302202BE0F975F0022A
:101E7D00A4FFC390002DE09FFB90002CE095F0FA9D
:101E8D00C003E9FF900029E02FFF900028E0340007
:101E9D00FE90002AE0FCA3E0FD900032E0FBA3E001
:101EAD0090003ECBF0A3EBF0D003127E7E9000307D
:101EBD00E0F975F002A4FFC390002DE09FFB9000A8
:101ECD002CE095F0FAC002C003E9FF900029E02F45
:101EDD00FF900028E03400FE900036E0FCA3E0FD0A
:101EED0090002AE0FAA3E02DFDEA3CCD24FFCD348D
:101EFD00FFFC900034E0FBA3E090003ECBF0A3EBA1
:101F0D00F0D003D002127E7E900030E0FB7A00907C
:101F1D00002BE02BFD90002AE03AFC900036E0C348
:101F2D0013FEA3E013C39BFBEE9A900032127ABE10
:101F3D00900036E0FAA3E0FBEAC313FEEB13FF902B
:101F4D00002BE02FFD90002AE03EFCEAC313FEEBD0
:101F5D0013FF900030E0FBC3EF9BFBEE940090006D
:101F6D0034127ABE90002CE0FEA3E0FF900029E031
:101F7D002FFF900028E03ECF24FFCF34FFFEC00698
:101F8D00C007900030E0FB7A0090002BE02BFD9015
:101F9D00002AE03AFC900036E0C313FEA3E013C321
:101FAD009BFBEE9AFA900032E0FFA3E090003ECF4B
:101FBD00F0A3EFF0D007D006127AD390002CE0FEFC
:101FCD00A3E0FF900029E02FFF900028E03ECF24F2
:101FDD00FFCF34FFFEC006C007900036E0FAA3E045
:101FED00FBEAC313FEEB13FF90002BE02FFD9000D7
:101FFD002AE03EFCEAC313FEEB13FF900030E0FB3A
:10200D00C3EF9BFBEE9400FA900034E0FFA3E09049
:10201D00003ECFF0A3EFF0D007D006127AD3900098
:10202D002AE0FCA3E0FD900030E0F9FF7E00900077
:10203D0028E0FAA3E02FFBEE3AFAA3E0F8A3E02F95
:10204D00FFEE3890003EF0A3EFF0E9FF900028E09E
:10205D00F8A3E02FFFEE38900040F0A3EFF0E9FF7A
